S01500004C61736572486172705F365F322E7372656367
S11300000C94BC130C94D9130C94D9130C94D913D9
S11300100C94D9130C94D9130C94D9130C94D913AC
S11300200C94D9130C94D9130C94D9130C94FD1378
S11300300C94D9130C94D9130C94D9130C94D9138C
S11300400C94D9130C94D9130C94D9130C94D9137C
S11300500C94D9130C94D9130C94D9130C94D9136C
S11300600C94D9130C94D9137680766C76808A8A92
S11300707694586C80586C6C764E6C766C4E629E9E
S1130080808A8A948A809E94948A80807680809ED6
S113009058A8B27694808A7694808A766C765830A2
S11300A03A443026264E44084E8080946C80627612
S11300B094948A80769E9476A89494C6BC94D094A2
S11300C09EA8B29E9E8A8A9E62583A6C443A3A4EE0
S11300D0442662808A948A8A6C768A948A587680C6
S11300E08A629E948ABC94A8A8A88AB29EA8A88072
S11300F08A80624E3A4E302626443026768A9E8A7C
S1130100A89480768A8A76584E8A62628A8080B2FF
S113011080A8A89E94A894A89E6C946C623A3044DB
S113012030263A443A3A769E9E9EBCA8948A8AB275
S1130130806262946C76A880B2A89EA8BC949EA8A3
S113014094B294768A6C623A303A301C3A4426442B
S1130150629E949EB29E9E80949E804E6C80767623
S11301609E80B2A89EB2C69E9EA894BC8A80766CDD
S1130170583026302612303A263A588A8A94B29455
S11301809E6C8A9476446280588A7694A8B29EC6FD
S1130190C6A8B2A8A8BC8A9480806244303A301CB5
S11301A04E3A443A6C9494A8A8A8948080A86C4EC3
S11301B06C76628A7694A8A89EBCC6A8BC9EB2B28D
S11301C0948A80806244303A261C44443A44628AC9
S11301D08AA89EA88A7680946C4476587676808A1B
S11301E0A8A894BCB2A8A894B2A894807676583AE9
S11301F0263A1C263A443A3A6C809494A89E946C0D
S11302008A9E6C5876628A8A809EB2A8A8D0BCBCAA
S1130210A8A8B2B2948A808062443A3A2626443A24
S11302203A3A6C7694949E9E8A7680A8586C6C6C4C
S11302308080809EB29EB2C6BCBC9EA8A8B2948A9E
S113024080766C3A44301C263A4430445876808A8E
S1130250949480628094586262628076769EA894B8
S1130260B2B2BCB29EA8A8B2948A8A806C4E4E3AAE
S1130270263A444E3A4E62768A949E948A62948ACE
S11302806C6C626C8080769EA89EBCB2C6B29EA83E
S1130290A8B28A94808A6C4E583A30304E3A3A4426
S11302A05876808A949E766C94806C62586C8076C2
S11302B0769E949EA8A8BCA8949EA89E94808A80AA
S11302C062584E3A26304E3A3A444E76768A8A9EA0
S11302D076769480766C626C8A7680A894A8A8B2AC
S11302E0BCA89E9EB2A89E8A948A626C4E44263A0A
S11302F04E443A44586C8080949E6C768A80766C26
S1130300626C8A6C809E949EA8B2BCA894A8A8A88B
S1130310948A948A6C6C5844263A4E3A3A3A4E621D
S11303207676948A6C768080766C586C8062808A4B
S1130330949E9EB2B2A8949EA8A8948A9E80766C3D
S11303406244303A4E443A444E6C76809E8A7680BB
S11303508A80766C5876766C808A94949EA8BC9E2B
S1130360949EA8A8948A9E8A7676624E3044444429
S11303703A444E6C6C80A88A76808A80806C587669
S1130380766C808A949494A8B29E94949EA88A943D
S113039094806C6C6244303A443A3A3A446C6280D9
S11303A09E8076808A80806262767676808A949453
S11303B094A8B29E9494A8A88A949E8A76766C4453
S11303C03A3A4E3A443A4E6C62809E8A808A8A8ACD
S11303D08A6C6C767676808A949494A8B29E9E9465
S11303E0B2A894949E8A76806C4E3A444E3A3A3A35
S11303F04E62588094807680768A80626C6C6C6CD5
S113040080808A8A94A8A89E9494A8A89494948A94
S113041076806C4E3A444444443A585862809E80F4
S1130420808A808A806C6C6C7676808A8A9494A8A0
S1130430A8A89494A8A894949E8A808A7658444E36
S11304404444443A585862809E8080808094806CF2
S11304506C6C6C7676808A8A94A8A8A89494A89EDA
S113046094949E80808076584444444E3A3A4E4E4A
S11304705880948080808094766C6C6C6C6C7680F0
S11304808A8A949EB2A89494A89E949E9E8A8A8AEC
S113049080584E4E4E4E3A44584E588A94808A8024
S11304A08A948076766C7676768A8A8A949EB2A8C6
S11304B09494A89E949E948A8A8A80584E444E4E60
S11304C03A444E4E58808A808A768A9480766C6C40
S11304D06C76768A808A949EB29E94949E9E949E14
S11304E0948A808A76624E444E443A444E445880FC
S11304F08A8A80808A948076766C7676768A8A8AEE
S1130500949EB2A89494A89E949E9E8A8A94806C89
S1130510584E584E3A444E445880808A80808A8A85
S11305208076766C766C7680808A8A9EB29E94946D
S11305309E9E949E9E8A8A94806C4E4E584E3A4E4D
S11305404E445876808A80768A8A8076766C6C6C83
S11305507680808A8A9EA89E8A949E9E949E9E8A75
S11305608A948076584E584E444E4E4458768A8A21
S113057080808A9480807676766C7680808A8A9E63
S1130580A8A8949E9E9E949E9E8A8A948A76584E8B
S1130590584E3A4E4E44586C808A80808A8A8080B5
S11305A076766C6C767680808A94A89E94949E94D9
S11305B0949E948A8A8A8A76584E584E3A4E444477
S11305C0586C808A80768A8A8A8076766C6C76808B
S11305D080808A94A89E94949E94949E948A8A94EB
S11305E08A766258624E44584E44586C808A8080A1
S11305F08A8A8A8076766C76768080808094A89EBB
S113060094949E94949E948A8A8A8A7662586244C8
S1130610444E44444E6276807676808A8A76767634
S11306206C6C767680808094A89E94949E94949E1C
S1130630948A8A948A806262624E4E4E44444E6228
S113064076807680808A8A8080766C6C76768080EC
S11306508094A89E94949E94949E94948A94948056
S11306606262624E4E4E4E444E5876807680808A48
S11306708A8080766C6C76768080808A9E9E949444
S1130680948A9494948A8A8A94806262624E4E4ECA
S11306904E444E5876807680808A808080766C6C5A
S11306A076768080808A9E9E9494948A9494948A88
S11306B08A8A94806C6C624E4E584E444E587680B2
S11306C07680808A808080766C7676768076808A62
S11306D09E9E949E9494949494948A8A94806C6C30
S11306E0624E4E4E4E4444586C76767680808080BE
S11306F080766C6C6C768076768A9494949E9494CE
S1130700949494948A8A9480766C625858584E448F
S113071044586C7676768080808080766C766C76B1
S11307208076768A9494949E9494949494948A8AE9
S113073094807676625858584E4E44586C76767645
S11307408080808080766C6C6C76767676809494EB
S11307509494948A94949494808A9480767662583B
S113076058584E4E445862767676768080808076ED
S1130770766C6C7680767680949494949494949425
S113078094948A94948A80766C625858584E44584B
S113079062767676808080808076766C6C768076E1
S11307A07680949494949494949494948A94948A4B
S11307B080766C625858584E444E627676767680CF
S11307C080808076766C6C76768080808A9E9E941B
S11307D094948A9494948A8A8A94806C6C62584E15
S11307E0584E4E4E5876807680808A808080767609
S11307F07676768076808A9E9E9494948A94949455
S1130800948A8A94806C6C62584E584E4444586C56
S11308107676767680808080766C6C6C7680767660
S11308208A9494949E9494949494948A8A948076CA
S11308306C625858584E4E44586C76767680808058
S11308408080766C766C768076768A9494949E9486
S113085094949494948A8A9E8A76766C5858584EC6
S11308604E44586C7676768080808080766C766C88
S1130870767676768094949494948A949494948AD4
S11308808A948076766C5858584E4E444E627676EA
S113089076768080808076766C6C768076768094AE
S11308A09494949494949494948A94948A80766C72
S11308B0625858584E44586276767680808080809C
S11308C07676766C768076768094949494949494E8
S11308D09494948A94948A80766C625858584E44BE
S11308E04E62767676768080808080766C6C7676C2
S11308F08080808A9E9E9494948A9494948A8A8A0E
S113090094806C6C62584E584E4E4E587680768069
S1130910808A8A808076767676768076808A9E9EB5
S11309209494948A9494948A8A8A94806C6C62587D
S11309304E584E4444586C76767676808080807625
S11309406C6C76768076768A949494949494949449
S113095094948A8A9480766C625858584E4E4E58B5
S11309606C7676768080808080766C766C76807605
S1130970768A949494949494949494948A8A948A79
S113098076766C585858584E44586C7676768080F3
S1130990808080766C766C7680767680949494945D
S11309A0948A949494948A8A948A76766C58585843
S11309B0584E445862767676768080808076766C5F
S11309C06C768076768094949494948A9494949497
S11309D08A8A948A80766C625858584E4458627653
S11309E0767680808080808076766C76807676805D
S11309F08A9494949494949494948A8A948A80760D
S1130A006C625858584E4E4E627676767680808068
S1130A108080766C6C76768080768A949E949494AA
S1130A208A9494948A8A8A948A6C6C625858584E30
S1130A304E4E5876807680808A8A80807676767666
S1130A40768080808A949E9494948A9494948A8ADA
S1130A508A94806C6C625858584E4E4E586C767618
S1130A60767680808080766C6C76768076768094DC
S1130A70949494948A949494948A8A948A767662C8
S1130A80585858584E4E586C7676768080808080C0
S1130A907676766C76807676809494949494949416
S1130AA09494948A8A948A76766C625858584E4400
S1130AB0586C76767680808080807676766C7680C8
S1130AC076768094949494948A949494948A8A9450
S1130AD08A76766C625858584E44586276767676A2
S1130AE0808080807676766C768076768094949416
S1130AF094948A949494948A8A948A80766C6258A2
S1130B0058584E4458627676767680808080807617
S1130B10767676807676808A949494948A94949463
S1130B20948A8A948A80766C626258584E4E4E62D9
S1130B30767676768080808080766C6C767680801F
S1130B40768A949E9494948A9494948A8A8A948AB1
S1130B506C6C6C5858584E4E4E5876807680808A0D
S1130B608A808076767676768080808A949E949445
S1130B70948A9494948A8A8A948A6C6C6258585899
S1130B804E4E4E586C7676767680808080766C6C8D
S1130B9076768076768094949494948A94949494BB
S1130BA08A8A948A76766C585858584E4E586C7681
S1130BB0767680808080807676767676807676808B
S1130BC094949494948A949494948A8A948A767645
S1130BD06C625858584E4E586C7676768080808079
S1130BE0807676766C768076768094949494948AE3
S1130BF0949494948A8A948A76766C625858584E5F
S1130C0044586276767676808080807676766C76C6
S1130C10807676808A949494948A949494948A8A1C
S1130C20948A80766C626258584E4E586276767614
S1130C3076808080808076767676807676808A94D8
S1130C409494948A949494948A8A948A80766C6214
S1130C506258624E4E4E62767676768080808080D0
S1130C60766C6C76768080768A949E9494948A943A
S1130C7094948A8A8A948A6C6C6C585858584E4E4C
S1130C80586C807680808A8A8080767676767680C4
S1130C9080808A94949494948A9494948A8A8A946A
S1130CA08A6C6C62585858584E4E586C76767676E4
S1130CB080808080766C6C7676807676809494944E
S1130CC094948A949494948A8A948A76766C5858E4
S1130CD058584E4E586C767676768080808076763C
S1130CE07676768076768094949494948A94949488
S1130CF0948A8A948A76766C625858584E4E586C08
S1130D0076767676808080808076766C768076764D
S1130D108094949494948A949494948A8A948A80DF
S1130D20766C625858584E4E586276767676808045
S1130D3080808076766C76807676808A949494949B
S1130D408A949494948A8A948A80766C62625858BD
S1130D50584E586276767676808080808076767675
S1130D6076807676808A949494948A949494948ADF
S1130D708A948A80806C62625862584E4E626C76A5
S1130D807676808080808076766C76768080768AAF
S1130D9094949494948A9494948A8A8A948A6C6C91
S1130DA06C585858584E4E586C807680808A8A8089
S1130DB08080767676768080768A94949494948AE9
S1130DC09494948A8A8A948A766C6C585858584EAB
S1130DD04E586C767676768080808076766C7676E1
S1130DE08076768094949494948A8A9494948A8A4B
S1130DF0948A76766C625858584E4E586C7676764D
S1130E0076808080808076767676807676809494FC
S1130E109494948A949494948A8A948A76766C624C
S1130E20585858584E586C767676768080808080F4
S1130E3076766C76767676808A949494948A8A947C
S1130E4094948A8A948A80766C62585858584E587A
S1130E506276767676808080808076766C76807610
S1130E6076808A949494948A949494948A8A948AA2
S1130E7080766C62625858584E58627676767680E0
S1130E808080808076767676807676808A94949454
S1130E90948A949494948A8A948A80806C6262621C
S1130EA062584E58626C7676768080808080767642
S1130EB06C76768080768A94949494948A8A9494B6
S1130EC08A8A8A948A766C6C585858584E4E586C54
S1130ED080768080808A8080807676767680807640
S1130EE08094949494948A9494948A8A8A948A7622
S1130EF06C6C585858584E4E586C7676767680807E
S1130F00808076766C76768076768094948A9494D3
S1130F108A8A9494948A8A948A76766C6258585809
S1130F20584E586C76767676808080808076767699
S1130F3076807676808A949494948A8A9494948A17
S1130F408A948A76766C62626258584E586C7676C9
S1130F507676808080808076766C76767676808AE7
S1130F60949494948A8A948A948A8A948A80766CD3
S1130F7062625858584E58627676767680808080C1
S1130F808076766C76807676808A8A9494948A8A3F
S1130F909494948A8A948A80766C62626262584ECF
S1130FA058627676767680808080807676767680D3
S1130FB07676808A8A9494948A8A8A94948A8A9483
S1130FC08A80807662626262584E58626C76767667
S1130FD0808080808076766C76768080768094942B
S1130FE08A94948A8A94948A8A8A8A8A766C6C58B7
S1130FF05858584E58586C80768080808A808080FB
S1131000767676768080768094949494948A8A9482
S1131010948A8A8A8A8A766C6C625858584E4E58DA
S11310206C767676768080808076766C767680763E
S1131030768094948A94948A8A9494948A8A948ADA
S113104076766C62585858584E586C767676768018
S11310508080808076767676807676808A94949482
S1131060948A8A9494948A8A948A76766C62626268
S113107058584E586C767676768080808080767666
S11310806C76767676808A949494948A8A948A94F8
S11310908A80948A80766C62625858584E58627678
S11310A0767676808080808076766C7680767680A0
S11310B08A8A9494948A8A9494948A8A948A807664
S11310C06C62626262584E58627676767680808070
S11310D0808076767676807676808A8A9494948AEE
S11310E08A8A94948A8A948A8080766C626262582E
S11310F04E58626C767676808080808076766C76C8
S1131100767680768094948A94948A8A94948A8A4F
S11311108A8A8A766C6C625858585858586C80760B
S11311208080808A808080767676768080768094CF
S1131130949494948A8A94948A8A808A8A766C6C29
S1131140625858584E4E586C7676767680808080F9
S113115076766C7676807676808A948A94948A8A77
S11311609494948A80948A76766C62586258584E25
S1131170586C7676767680808080807676767680F7
S11311807676808A949494948A8A9494948A8A949D
S11311908A80766C62626258584E586C767676769F
S11311A0808080808076767676767676808A948A59
S11311B094948A8A948A948A80948A80766C6262EF
S11311C06258584E58627676767680808080807633
S11311D0766C76807676808A8A9494948A8A9494BB
S11311E0948A8A948A80767662626262584E5862E1
S11311F0767676768080808080767676768076764F
S1131200808A8A9494948A8A8A94948A8A948A8012
S113121080766C626262584E58626C767676808014
S113122080808076766C7676768076808A948A8AD8
S1131230948A8A94948A8A8A8A8A766C6C625858C8
S1131240585858586C80768080808A808080767662
S11312507676808076808A949494948A8A94948A08
S11312608A808A8A766C6C62585858584E586C76C4
S11312707676768080808080766C767680767680CE
S11312808A948A94948A8A94948A8A808A8A7676BA
S11312906C62586258584E586C76767676808080A8
S11312A0808076767676807676808A948A94948A1C
S11312B08A9494948A80948A80766C626262585884
S11312C04E586C76767676808080808076767676D8
S11312D0767676808A948A94948A8A8A8A948A8092
S11312E0948A80766C62626258584E58627676763A
S11312F076808080808076767676767676808A8A26
S11313008A94948A8A8A8A948A80948A8076766C6B
S1131310626262584E5862767676768080808080EB
S113132076767676807676808A8A8A94948A8A8A91
S11313308A948A8A948A8080766C626262584E5853
S1131340626C767676808080808076766C7676762F
S11313508076808A948A8A948A8A948A8A8A8A8AF3
S11313608A766C6C625862585858586C80768080C3
S1131370808080808076767676808076808A948A73
S11313808A948A8A8A948A8A808A8A766C6C625859
S113139058585858586C7676767680808080807657
S11313A0767676807676808A948A8A948A8A8A8AFD
S11313B08A8A808A8A76766C626262585858586C37
S11313C0767676768080808080767676768076767D
S11313D0808A948A94948A8A948A8A8A80948A8055
S11313E07676626262625858586C76767676808039
S11313F080808076767676767676808A8A8A948AF3
S11314008A8A8A8A8A8A808A8A8076766262626214
S1131410584E58626C7676768080808080767676B8
S113142076767676768A8A8A94948A8A8A8A948A5E
S113143080948A8076766C626262625858627676AC
S11314407676808080808076767676807676808ADE
S11314508A8A94948A8A8A8A948A8A8A8A808076F2
S11314606C626262625858626C76767680808080A4
S1131470807676767676768076808A948A8A948A5E
S11314808A948A8A8A808A8A766C6C6258626258E4
S113149058586C80767680808080808076767676E8
S11314A0808076808A948A8A948A8A8A8A8A8A80C0
S11314B08A8A766C6C625862585858586C7676767C
S11314C076808080808076767676767676808A944A
S11314D08A8A948A8A8A8A8A8A808A8A76766C62D6
S11314E06262625858586C76767676808080808006
S11314F076767676807676808A948A94948A8A94AC
S11315008A8A8A808A8A8076766C6262625858589F
S11315106C7676767680808080807676767676763F
S113152076808A8A8A8A8A8A8A8A8A8A8A808A8A3F
S11315308076766C626262585858626C76767680F1
S11315408080808076767676767676768A8A8A94B5
S1131550948A8A8A8A948A80948A8076766C626273
S113156062625858626C7676768080808080767667
S11315707676807676768A8A8A94948A8A8A8A9417
S11315808A8A8A8A8080766C626262625858626C47
S113159076767680808080807676767676768076AB
S11315A0808A948A8A948A8A8A8A8A8A808A8A76AB
S11315B06C6C626262625858586C80767680808067
S11315C080808076767676808076808A948A8A9403
S11315D08A8A8A8A8A8A808A8A766C6C625862626B
S11315E05858586C767676768080808080767676C9
S11315F076768076808A948A8A948A8A8A8A8A8A83
S1131600808A8A76766C626262625858586276760C
S11316107676808080808076767676807676808A0C
S1131620948A94948A8A8A8A8A8A808A8A80767634
S11316306C626262585858627676767680808080D2
S11316408076767676767676768A8A8A8A8A8A8AA0
S11316508A8A8A8A808A8A8076766C62626258581C
S113166058626C7676768080808080767676767620
S11316707676768A8A8A8A948A8A8A8A8A8A808A02
S11316808A8076766C626262625858626C7676768C
S1131690808080808076767676808076768A8A8A64
S11316A0948A8A8A8A8A948A808A8A8080766C62FA
S11316B06262625858626C7676768080808080762A
S11316C076767676768076808A948A8A948A8A8AEE
S11316D08A8A8A808A8A766C6C62626262585858F6
S11316E06C7676768080808080807676767676805A
S11316F076808A948A8A948A8A8A8A8A8A808A8A5A
S1131700766C6C626262625858586276767676803D
S11317108080808076767676768076808A948A8ACF
S1131720948A8A8A8A8A8A808A8A76766C626262D3
S11317306258585862767676768080808080767695
S11317407676767676808A948A8A948A8A8A8A8A4F
S11317508A808A8A8076766C62626262585862767F
S113176076767680808080807676767676767676E3
S11317708A8A8A8A8A8A8A8A8A8A8A808A8A8076ED
S1131780766C626262625858626C7676768080808B
S1131790808076767676767676768A8A8A8A8A8A59
S11317A08A8A8A8A8A808A8A8080766C6262626285
S11317B05858626C767676808080808076767676ED
S11317C076807676808A8A8A8A8A8A8A8A8A8A80CF
S11317D08A8A8080766C6C6262625858626C767613
S11317E07680808080807676767676768076808A3B
S11317F0948A8A8A8A8A8A8A8A8A808A8A766C6C95
S1131800626262625858586C7680768080808080EC
S11318108076767676768076808A948A8A948A8AA6
S11318208A8A8A8A808A8A766C6C62626262585872
S11318305862767676768080808080767676767644
S11318408076808A948A8A948A8A8A8A8A8A808A12
S11318508A8076766C6262625858586276767676BA
S1131860808080808076767676768076808A948A88
S11318708A8A8A8A8A8A8A8A808A8A8076766C6246
S1131880626262585862767676768080808080764E
S113189076767676767676808A8A8A8A8A8A8A8A3A
S11318A08A8A808A8A8076766C626262625858621A
S11318B06C7676768080808080767676767676769C
S11318C076808A8A8A8A8A8A8A8A8A8A808A8A80A6
S11318D080766C626262625858626C76767680803A
S11318E08080807676767676807676808A8A8A8A12
S11318F08A8A8A8A8A8A808A8A8080766C6C626202
S1131900625858626C7676768080808080767676AF
S11319107676768076808A948A8A8A8A8A8A8A8A7D
S11319208A808A8A806C6C6C6262625858626C76B7
S113193080768080808080807676767676807680E9
S11319408A948A8A948A8A8A8A8A8A808A8A767611
S11319506C6C6262625858586276767676808080C3
S1131960808076767676768076808A948A8A8A8A69
S11319708A8A8A8A8A808A8A8076766C62626262BD
S11319805858627676767680808080807676767611
S1131990768076808A8A8A8A8A8A8A8A8A8A8A80E9
S11319A08A8A8076766C626262625858627676764B
S11319B07680808080807676767676767676808A73
S11319C08A8A8A8A8A8A8A8A8A808A8A8076766CCD
S11319D0626262625858626C76767680808080801B
S11319E07676767676767676808A8A8A8A8A8A8AFD
S11319F08A8A8A808A8A8080766C6C62626258588D
S1131A00626C767676808080808076767676768054
S1131A107676808A8A8A8A8A8A8A8A8A8A808A8A5E
S1131A208080766C6C6262625858626C76767680DE
S1131A30808080807676767676768076808A948AC0
S1131A408A8A8A8A8A8A8A8A808A8A806C766C627E
S1131A5062625858626C768076808080808080765E
S1131A60767676768076808A948A8A8A8A8A8A8A40
S1131A708A8A808A8A8076766C6262625858586252
S1131A8076767676808080808076767676768076B6
S1131A90808A8A8A8A8A8A8A8A8A8A8A808A8A80C0
S1131AA076766C6262626258586276767676808068
S1131AB08080807676767676807680808A8A8A8A36
S1131AC08A8A8A8A8A8A808A8A8076766C62626244
S1131AD062585862767676768080808080767676D4
S1131AE07676767676808A8A8A8A8A8A8A8A8A8AC0
S1131AF0808A8A8076766C626262625858626C76FA
S1131B007676808080808076767676767676768035
S1131B108A8A8A8A8A8A8A8A8A8A808A8A80807653
S1131B206C6C6262625858626C76767680808080D3
S1131B30807676767676807676808A8A8A8A8A8AAB
S1131B408A8A8A8A808A8A8080766C6C6262625809
S1131B5058626C7676767680808080767676767635
S1131B60768076808A948A8A8A8A8A8A8A8A8A800D
S1131B708A8A806C766C6262626258626C76807665
S1131B8080808080808076767676768076808A946F
S1131B908A8A8A8A8A8A8A8A8A808A8A8076766CFB
S1131BA0626262625858627676767680808080803F
S1131BB07676767676807680808A8A8A8A8A8A8A17
S1131BC08A8A8A808A8A8076766C626262625858CF
S1131BD06276767676808080808076767676768079
S1131BE07680808A8A8A8A8A8A8A8A8A8A808A8A83
S1131BF08076766C6262626262586276767676800D
S1131C00808080807676767676767676808A8A8A02
S1131C108A8A8A8A8A8A8A808A8A8076766C6C62C0
S1131C2062625858626C76767680808080807676A0
S1131C30767676767676808A8A8A8A8A8A8A8A8A82
S1131C408A808A8A8080766C6C6262626258626C76
S1131C5076767680808080807676767676807676E4
S1131C60808A8A8A8A8A8A8A8A8A8A808A8A8080F8
S1131C70766C6C6C62626258626C76767676808082
S1131C8080807676767676768076808A8A8A8A8A64
S1131C908A8A8A8A8A8A808A8A806C766C6262627C
S1131CA06262626C768076808080808080767676D0
S1131CB076768076808A8A8A8A8A8A8A8A8A8A8AD0
S1131CC0808A8A8076766C6262626258586276761E
S1131CD07676808080808076767676768076808050
S1131CE08A8A8A8A8A8A8A8A8A8A808A8A8076768C
S1131CF06C62626262585862767676768080808002
S1131D00807676767676807676808A8A8A8A8A8AD9
S1131D108A8A8A8A808A8A8076766C6C6262626237
S1131D20586276767676808080808076767676764F
S1131D30767676808A8A8A8A8A8A8A8A8A8A808A4F
S1131D408A8076766C6C6262626258626C767676B1
S1131D5080808080807676767676767676808A8ABB
S1131D608A8A8A8A8A8A8A8A808A8A8080766C6C3D
S1131D706C62626258626C7676768080808080764F
S1131D8076767676807676808A8A8A8A8A8A8A8A3B
S1131D908A8A808A8A8080766C6C6C6262626262F3
S1131DA06C767676768080808076767676767680A7
S1131DB076808A8A8A8A8A8A8A8A8A8A8A80808AB1
S1131DC0806C766C6262626262626C76807680801D
S1131DD0808080807676767676807680808A8A8A1D
S1131DE08A8A8A8A8A8A8A80808A8076766C626203
S1131DF062625858627676767680808080807676C5
S1131E00767676807680808A8A8A8A8A8A8A8A8A9C
S1131E108A808A8A8076766C6262626262586276AE
S1131E207676768080808080767676767680767612
S1131E30808A8A8A8A8A8A8A8A8A8A808A8A807630
S1131E40766C6C62626262586276767676808080A6
S1131E5080807676767676767676808A8A8A8A8A9C
S1131E608A8A8A8A8A808A8A8076766C6C626262BE
S1131E706258626C7676768080808080767676761C
S1131E8076807676808A8A8A8A8A8A8A8A8A8A8008
S1131E908A8A8080766C6C6C62626258626C767638
S1131EA07680808080807676767676807676808A74
S1131EB08A8A8A8A8A8A8A8A8A808A8A8080766CCE
S1131EC06C6C6C6C6262626C7676767680808080F4
S1131ED0767676767676808080808A8A8A8A8A8AFE
S1131EE08A8A8A8A80808A8076766C62626262627A
S1131EF0626C768076808080808080767676767656
S1131F00807680808A8A8A8A8A8A8A8A8A8A808073
S1131F108A8076766C6262626262626276767676D5
S1131F2080808080807676767676807676808A8ADF
S1131F308A8A8A8A8A8A8A8A80808A8076766C6289
S1131F406262626262627676767680808080807673
S1131F5076767676807676808A8A8A8A8A8A8A8A69
S1131F608A8A808A8A8076766C6C6C626262586235
S1131F7076767676808080808076767676767676CB
S1131F8076808A8A8A8A8A8A8A8A8A8A808A8A80DF
S1131F9076766C6C6C62626258626C767676768069
S1131FA08080807676767676807676808A8A8A8A4B
S1131FB08A8A8A8A8A8A808A8A8080766C6C6C6C27
S1131FC06C6262626C7676768080808080767676CB
S1131FD07676807676808A8A8A8A8A8A8A8A8A8AC1
S1131FE0808A8A808076766C6C6C6C6262626C76B5
S1131FF07676768080808076767676767680808037
S1132000808A8A8A8A8A8A8A8A8A8A80808A807668
S1132010766C6262626262626C76807680808080B6
S113202080807676767676807680808A8A8A8A8AB6
S11320308A8A8A8A8A80808A8076766C6262626200
S11320406262627676767676808080807676767640
S113205076807676808A8A8A8A8A8A8A8A8A8A8036
S1132060808A8076766C6C62626262626276767670
S11320707680808080807676767676807676808AA2
S11320808A8A8A8A8A8A8A8A8A80808A8076766C10
S11320906C6C6C6262626276767676808080808018
S11320A07676767676807676808A8A8A8A8A8A8A2C
S11320B08A8A8A80808A8076766C6C6C6C626262B2
S11320C0626C767676768080808076767676768098
S11320D07676808A8A8A8A8A8A8A8A8A8A808A8A98
S11320E0808076766C6C6C6C6262626C76767680DC
S11320F0808080807676767676807676808A8A8A04
S11321008A8A8A8A8A8A8A808A8A808076766C6CAD
S11321106C6C6262626C7676767680808080807683
S113212076767676808076808A8A8A8A8A808A8A97
S11321308A8A80808A8076766C6262626262626C6D
S113214076807680808080808076767676768076DB
S113215080808A8A8A8A8A8A8A8A8A8A80808A800D
S113216076766C6262626262626276767676768097
S11321708080807676767676807676808A8A8A8A79
S11321808A8A8A8A8A8A80808A8076766C6C62627D
S113219062626262767676768080808080767676F9
S11321A07676807676808A8A8A8A8A8A8A8A8A8AEF
S11321B080808A807676766C6C6C626262627676F7
S11321C07676808080808076767676768076768065
S11321D08A8A8A8A8A8A8A8A8A8A80808A807676A1
S11321E0766C6C6C626262626C76767676808080E5
S11321F0807676767676807676808A8A8A8A8A8AE5
S11322008A8A8A8A80808A808076766C6C6C6C621A
S113221062626C767676768080808080767676765A
S1132220807676808A8A8A8A8A8A8A8A8A8A808A50
S11322308A808076766C6C6C6C6262626C76767680
S11322407680808080807676767676808076808AC6
S11322508A8A8A8A808A8A8A8A80808A8076766C48
S113226062626C6262626C7680768080808080803C
S11322707676767676808080808A8A8A8A8A808A50
S11322808A8A8A80808A8076766C6C6262626262F4
S113229062767676767680808080767676767680BC
S11322A07676808A8A8A8A8A8A8A8A8A8A80808AD0
S11322B08076766C6C6C6C6262626276767676801E
S11322C0808080807676767676807676808A8A8A32
S11322D08A8A8A8A8A8A8A80808A807676766C6CF0
S11322E06C626262627676767680808080807676B2
S11322F0767676807676808A8A8A8A8A808A8A8ABC
S11323008A80808A807676766C6C6C626262626C9B
S11323107676767680808080767676767680767627
S1132320808A8A8A8A8A8A8A8A8A8A80808A80803B
S113233076766C6C6C6C6262626C76767676808093
S11323408080807676767680767680808A8A8A8A9D
S11323508A8A8A8A8A808A8A808076766C6C6C6C97
S11323606262626C7676767680808080807676761D
S11323707676808076808A8A8A8A8A808A8A8A8A1D
S113238080808A8076766C6C626C6262626C768025
S11323907680808080808076767676768080808075
S11323A08A8A8A8A8A808A8A8A8A80808A807676D9
S11323B06C6C626262626262767676767680808027
S11323C0807676767676807676808A8A8A8A8A8A13
S11323D08A8A8A8A80808A8076766C6C6C6C626267
S11323E06262767676767680808080767676767689
S11323F0807676808A8A8A8A8A8A8A8A8A8A808089
S11324008A807676766C6C6C6C62626276767676AE
S113241076808080807676767676807676808A8AF4
S11324208A8A8A808A8A8A8A80808A807676766C8A
S11324306C6C6C6262626C76767676808080807674
S113244076767676807676808A8A8A8A8A808A8A7E
S11324508A8A80808A808076766C6C6C6C62626218
S11324606C767676768080808080767676768076D6
S11324707680808A8A8A8A8A8A8A8A8A80808A80FE
S11324808076766C6C6C6C6262626C767676768042
S1132490808080807676767676808076808A8A8A56
S11324A08A8A808A8A8A8A80808A807676766C6232
S11324B06C6262626C7680768080808080807676C2
S11324C0767676808080808A8A8A8A8A808A8A8AD6
S11324D08A80808A8076766C6C626C6262626276D4
S11324E07676767680808080767676767680767656
S11324F0808A8A8A8A8A8A8A8A8A8A80808A807674
S113250076766C6C6C6262626276767676768080C1
S113251080807676767676807676808A8A8A8A8ACB
S11325208A8A8A8A8A80808A807676766C6C6C6CD9
S11325306262627676767676808080808076767641
S113254076807676808A8A8A8A8A808A8A8A8A804B
S1132550808A808076766C6C6C6C6262626C767653
S11325607676808080808076767676807676808AAD
S11325708A8A8A8A808A8A8A8A80808A8080767611
S11325806C6C6C6C6262626C76767676808080802D
S1132590807676767680767680808A8A8A8A808A41
S11325A08A8A8A80808A808080766C6C6C6C626295
S11325B0626C7676767680808080807676767676A3
S11325C0808076808A8A8A8A8A808A8A8A808080C1
S11325D08A807676766C6C6C6262626C76807680C9
S11325E080808080808076767676808076808A8A05
S11325F08A8A8A808A8A8A8080808A8076766C6CCD
S11326006C6C6262626276767676768080808076A2
S113261076767676807676808A8A8A8A8A808A8AAC
S11326208A8A80808A807676766C6C6C6C62626250
S113263076767676768080808080767676768076FA
S113264076808A8A8A8A8A8A8A8A8A8A80808A8022
S11326507676766C6C6C6C62626276767676768070
S11326608080808076767676767676808A8A8A8A84
S11326708A808A8A8A8A80808A808076766C6C6C6A
S11326806C6262626C767676768080808080767604
S1132690767680767680808A8A8A8A808A8A8A8A0E
S11326A080808A808076766C6C6C6C6C626C6C76E4
S11326B07676768080808080767676768076768070
S11326C0808A8A8A8A808A8A8A8A80808A808080AC
S11326D0766C6C6C6C6C62626C76767676808080DC
S11326E080807676767676808076808A8A8A8A8AF0
S11326F0808A8A8A8080808A807676766C6C6C6C1C
S113270062626C7680768080808080808076767647
S113271076808076808A8A8A8A8A808A8A8A8A806F
S1132720808A807676766C6C6C6262626C76767681
S11327307676808080807676767676807676808AE5
S11327408A8A8A8A80808A8A8A80808A8076767653
S11327506C6C6C6C62626276767676768080808051
S11327608076767676807676808A8A8A8A8A808A65
S11327708A8A8A80808A807611241FBECFEFD8E0AF
S1132780DEBFCDBF11E0A0E0B1E0ECE0FCE202C0AE
S113279005900D92A231B107D9F721E0A2E1B1E091
S11327A001C01D92AD31B207E1F70E9451140C949F
S11327B004160C94000017B8EAE7F0E080818368FF
S11327C080838FEF8AB91BB817BC84B5836C84BD32
S11327D085B5816085BD1092890010928800E1E87A
S11327E0F0E0808188608083AFE6B0E08C91826005
S11327F08C9380818160808308951F920F920FB61D
S11328000F9211242F938F939F93EF93FF938091B3
S11328100001813079F4E0911B01F0911C01CF019A
S1132820019690931C0180931B01E859FF4F8591F9
S1132830949187BD80911B0190911C01803A9F4027
S113284030F010921C0110921B0110920001FF91B4
S1132850EF919F918F912F910F900FBE0F901F902A
S1132860189521E02093000110921C0110921B0185
S11328709093890080938800089591E090930001DB
S113288010921C0110921B01E82FF0E0EE0FFF1FC5
S1132890EF5FFE4F8081918190938900809388003F
S11328A008950E94DB1378940E94D7140F2EFCE73E
S11328B0CF2ED12CF02DCAE7D0E00F2EF8E7EF2E63
S11328C0F12CF02D09E710E09924939480911A01DA
S11328D08F70F6018083888180648883888184FF77
S11328E0FDCFF7018081F801208190E0922B84389C
S11328F0934088F480911A01A82EB12CF501EE5E64
S1132900FE4F908191110DC00E943D14F501EE5EC1
S1132910FE4F908206C0E0911A01F0E0EE5EFE4F99
S1132920108280911A018F5F80931A01883070F2AF
S113293010921A01CBCF0E9431142FEF89E698E14F
S1132940215080409040E1F700C0000008950E94AB
S113295031142FEF84E39CE0215080409040E1F754
S113296000C0000008950E9431142FE78FE492E123
S1132970215080409040E1F700C0000008950E947B
S113298031142FEF83ED90E3215080409040E1F724
S113299000C0000008950E9431142FE78AE196E0F8
S11329A0215080409040E1F700C0000008958EE778
S11329B099E00E949B148EE799E00E949B148EE795
S11329C099E00E949B1485EF9BE00E94B3148BEF67
S11329D097E00E94CB148EE799E00E949B1485EF48
S11329E09BE00E94B3148BEF97E00E94CB148EE718
S11329F099E00E94BF1486E596E00E949B1486E548
S1132A0096E00E949B1486E596E00E949B148BEF4F
S1132A1095E00E94B3148BEF97E00E94CB148EE0F4
S1132A209AE00E949B1485EF9BE00E94B3148BEF05
S1132A3097E00E94CB148EE799E00E94BF148FEBBD
S1132A4094E00E949B148EE799E00E94B3148EE7F1
S1132A5099E00E94CB148FEB94E00E949B1487E0D2
S1132A6095E00E94B31484E595E00E94CB1485EAB6
S1132A7095E00E94CB148BEF95E00E94CB1485EA7D
S1132A8095E00E94A7142FEF84E39CE0215080403E
S1132A909040E1F700C0000085EF98E00E94A71481
S1132AA086EB96E00E949B148CE197E00E94B3149D
S1132AB088E897E00E94CB148BEF97E00E94CB1438
S1132AC085E798E00E94CB148BEF97E00E94A7144F
S1132AD02FEF84E39CE0215080409040E1F700C058
S1132AE0000085EF9BE00E94A7148EE09AE00E940C
S1132AF09B1485EF9BE00E94B3148EE09AE00E9441
S1132B00CB148BEF97E00E949B148EE799E00E9410
S1132B10B3148BEF97E00E94CB1486E596E00E94F5
S1132B20BF148FEB94E00E949B148EE799E00E94FF
S1132B30B3148EE799E00E94CB148FEB94E00E94CB
S1132B409B1487E095E00E94B31484E595E00E940D
S1132B50CB1485EA95E00E94CB148BEF95E00E949C
S1132B60CB1485EA95E00E94A7142FEF84E39CE040
S1132B70215080409040E1F700C0000085EF98E0CC
S1132B800E94A71486EB96E00E949B148CE197E0C8
S1132B900E94B31488E897E00E94CB148BEF97E06F
S1132BA00E94CB1485E798E00E94CB148BEF97E04A
S1132BB00E94A7142FEF84E39CE0215080409040B2
S1132BC0E1F700C0000085EF9BE00E94A7148EE0AF
S1132BD09AE00E949B1485EF9BE00E94B3148EE060
S1132BE09AE00E94CB148EE799E00E949B1485EF33
S1132BF09BE00E94B3148BEF97E00E94CB148EE706
S10F2C0099E00E94BF140895F894FFCFDF
S1132C0C01750888071C075606A5055405BF043A28
S1052C1C0400AE
S9030000FC
